:020000040800F2
:10000000C00F0020A1010008D9120008AD020008AD
:10001000D5120008BF020008C51B00080000000040
:10002000000000000000000000000000ED120008C9
:100030003503000800000000DB120008F112000880
:10004000BB010008BB010008BB010008BB010008A0
:10005000BB010008BB010008BB010008BB01000890
:10006000BB010008BB010008BB010008BB01000880
:10007000BB010008BB010008BB010008BB01000870
:10008000BB010008BB010008BB010008BB01000860
:10009000BB010008BB010008BB010008BB01000850
:1000A000BB010008BB010008BB010008BB01000840
:1000B000E1140008BB010008BB010008BB010008F7
:1000C000BB010008BB010008BB010008BB01000820
:1000D000BB0100083D1900084D190008BB010008CC
:1000E000BB010008BB010008BB010008BB01000800
:1000F000BB010008BB010008BB010008BB010008F0
:10010000BB010008BB010008BB010008BB010008DF
:10011000BB010008BB010008BB010008BB010008CF
:10012000BB010008BB010008BB010008BB010008BF
:10013000BB010008BB010008BB010008BB010008AF
:10014000BB010008BB010008BB010008BB0100089F
:10015000BB010008BB010008BB0100085D190008D5
:10016000BB010008BB010008BB010008BB0100087F
:10017000BB010008BB010008BB0100080000000033
:10018000BB010008BB010008DFF810D000F07CF8CC
:100190000048004721260008AFF30080C00F002070
:1001A0000648804706480047FEE7FEE7FEE7FEE711
:1001B000FEE7FEE7FEE7FEE7FEE7FEE77D14000848
:1001C000890100082DE9F05F0546002092469B4614
:1001D00088460646814640241BE02846414647465D
:1001E000224600F041F853465A46C01A914110D3B6
:1001F00011461846224600F028F82D1A67EB010830
:100200004F4622460120002100F01FF817EB00099D
:100210004E41201EA4F10104DFDC484631462A4647
:100220004346BDE8F09FD2B201E000F8012B491E21
:10023000FBD270470022F6E710B513460A46044683
:100240001946FFF7F0FF204610BD202A04DB203AB4
:1002500000FA02F1002070479140C2F1200320FA19
:1002600003F3194390407047202A04DB203A21FA17
:1002700002F00021704721FA02F3D040C2F12002BF
:100280009140084319467047064C074D06E0E06868
:1002900040F0010394E8070098471034AC42F6D3CD
:1002A000FFF776FFA8280008C82800081EF0040FF2
:1002B0000CBFEFF30880EFF3098000F0E7BD00BF4B
:1002C000FEE7000010B504460CB90E4810BD012C25
:1002D00001D10D48FAE7022C01D10020F6E7032CEA
:1002E00001D10020F2E7042C01D10020EEE7052C1B
:1002F00001D10648EAE7BA2105A000F01CF8002069
:10030000E4E700007407002020080020CC0800204B
:100310002E2E5C2E2E5C557365725C6273705C735E
:1003200072635C6273705F756172745F6669666F39
:100330002E630000704701B9704700BFFEE7000060
:10034000012001490860704700042742F8B50246C1
:100350000B460025002400200021DCE0012606FADF
:1003600001F51E6806EA0504AC4273D15E68022EF0
:1003700002D05E68122E13D1CF0802F1200656F883
:1003800027004E07F70E0F26BE40B0434F07FF0E63
:100390001E69BE403043CF0802F1200646F8270010
:1003A00010684F000326BE40B0431E7906F00306D6
:1003B0004F00BE40304310605E68012E08D05E687A
:1003C000022E05D05E68112E02D05E68122E13D167
:1003D00090684F000326BE40B0434F00DE68BE4029
:1003E00030439060506801268E40B0431E79C6F3BA
:1003F00000168E4030435060D0684F000326BE4048
:10040000B0434F009E68BE403043D0605E6806F047
:100410008056B6F1805F7DD100BF00260096404E29
:10042000366846F480463E4F3E603E46366806F4E7
:100430008046009600BF00BF3A4E8F0856F827004E
:100440008E07370F0F26BE40B043374EB24202D15F
:10045000002624E05EE0354EB24201D101261EE0C6
:10046000334EB24201D1022619E0324EB24201D1DE
:10047000032614E0304EB24201D104260FE02F4E85
:10048000B24201D105260AE02D4EB24201D1062624
:1004900005E02C4EB24201D1072600E008268F0766
:1004A0003F0FBE4030431F4E8F0846F82700264EB0
:1004B0003068A0435E6806F48036B6F5803F00D110
:1004C0002043214E3060361D3068A0435E6806F43C
:1004D0000036B6F5003F00D120431B4E361D30607C
:1004E000361D3068A0435E6806F48016B6F5801F9E
:1004F00000D12043144E08363060361D3068A043CA
:100500005E6806F40016B6F5001F00D120430E4EBB
:100510000C363060491C1029FFF420AFF8BD0000F4
:100520004438024008380140000002400004024004
:1005300000080240000C024000100240001402407B
:1005400000180240001C0240003C014001480068C5
:100550007047000034000020034800680349097810
:100560000844014908607047340000203C00002026
:1005700010B50D48006840F400700B49086008464B
:10058000006840F4806008600846006840F48070AD
:100590000860032000F080F80F2000F007F800F05A
:1005A0002BF8002010BD0000003C024070B504464E
:1005B0000E4800784FF47A71B1FBF0F00C490968ED
:1005C000B1FBF0F5284600F0DDFB08B1012070BD5D
:1005D000102C07D200222146501E00F01EF80548BC
:1005E000046001E00120F2E70020F0E73C00002079
:1005F00040000020380000207047014608460028CF
:1006000009DB00F01F0301229A4043099B0003F11C
:10061000E023C3F8002100BF70472DE9F05F80465A
:100620000D461646002701F0DFFA074639462A46EE
:10063000334601F00700C0F1070ABAF1040F02D9EE
:100640004FF0040A01E0C0F1070AD14600F1040AA4
:10065000BAF1070F02D24FF0000A01E0A0F1030A3D
:10066000D4464FF0010A0AFA09FAAAF1010A0AEA85
:10067000020A0AFA0CFA4FF0010B0BFA0CFBABF171
:10068000010B0BEA030B4AEA0B042146404601F03A
:10069000B3FABDE8F09F000000BF00F00702064B70
:1006A00019684FF6FF031940044B0B4343EA02213C
:1006B000014B196000BF70470CED00E00000FA0527
:1006C00070B504460D460CB9012070BD584800684D
:1006D00000F00F00A84209D255490D700846006885
:1006E00000F00F00A84201D00120EEE7207800F0D2
:1006F000020002281DD1207800F00400042805D152
:100700004C48006840F4E0504A490860207800F006
:100710000800082805D14748006840F46040454972
:1007200008604448006820F0F000A168084341498F
:100730000860207800F00100A8B36068012807D1A4
:100740003C4808380068C0F34040B8B90120BCE715
:100750006068022802D06068032807D1354808384D
:100760000068C0F3406048B90120AEE7314808385E
:100770000068C0F3400008B90120A6E72D480068D2
:1007800020F00300616808432A490860FFF7DEFE95
:10079000064609E0FFF7DAFE801B41F28831884205
:1007A00002D9032091E707E02248006800F00C001E
:1007B0006168B0EB810FEDD11D48006800F00F00BB
:1007C000A84209D91A490D700846006800F00F00C8
:1007D000A84201D0012078E7207800F00400042826
:1007E00007D11448006820F4E050E168084311493B
:1007F0000860207800F00800082808D10D4800683B
:1008000020F46040216940EAC1000A49086000F014
:100810003DF808490968C1F30311074A515CC84013
:10082000064908600F20FFF7C1FE00204DE70000D9
:10083000003C0240083802404C28000840000020DC
:1008400001480068704700004000002000B5FFF735
:10085000F7FF04490968C1F38221034A515CC8408B
:1008600000BD0000083802405C28000800B5FFF712
:10087000E7FF04490968C1F34231034A515CC840AB
:1008800000BD0000083802405C2800082DE9F04750
:10089000002400250026A1462548006800F00C0031
:1008A00020B1042805D008283AD105E0DFF884906B
:1008B00039E0DFF8849036E01D48001F006800F042
:1008C0003F041B48001F006800F4800078B11A48FC
:1008D0001749091F0968C1F38811A0FB017001467F
:1008E000224600233846FFF76DFC05460EE011480E
:1008F0000F49091F0968C1F38811A0FB0170014667
:10090000224600233846FFF75DFC05460848001FD5
:100910000068C0F30140401C4600B5FBF6F902E058
:10092000DFF8109000BF00BF4846BDE8F087000028
:10093000083802400024F40040787D01F8B50446F0
:100940000CB90120F8BD207800F00100002874D017
:10095000F948006800F00C0004280DD0F648006843
:1009600000F00C00082813D1F348001F006800F4C1
:100970008000B0F5800F0BD1EF4808380068C0F355
:100980004040002859D06068002856D10120D9E79E
:1009900000BF6068B0F5803F08D1E74808380068BC
:1009A00040F48030E449083908601EE06068B0F522
:1009B000A02F0DD1E0480838006840F48020DE49BF
:1009C000083908600846006840F4803008600CE090
:1009D000D9480838006820F48030D74908390860C1
:1009E0000846006820F48020086000BF606890B16D
:1009F000FFF7ACFD054606E0FFF7A8FD401B6428A5
:100A000001D903209EE7CC4808380068C0F3404075
:100A10000028F1D011E0FFF799FD054606E0FFF749
:100A200095FD401B642801D903208BE7C248083894
:100A30000068C0F340400028F1D1207800F00200A7
:100A400002285FD1BC48006800F00C0058B1BA48D9
:100A5000006800F00C0008281CD1B748001F00688F
:100A600000F48000B0B9B44808380068C0F3400012
:100A700020B1E068012801D0012063E7AE480838C2
:100A8000006820F0F800216940EAC100AA4908394D
:100A9000086037E0E06800B30120A8490860FFF76C
:100AA00055FD054606E0FFF751FD401B022801D920
:100AB000032047E7A04808380068C0F3400000283A
:100AC000F1D09D480838006820F0F800216940EA1C
:100AD000C10099490839086014E00020974908606E
:100AE000FFF734FD054606E0FFF730FD401B022806
:100AF00001D9032026E7904808380068C0F3400079
:100B00000028F1D1207800F0080008282CD1606975
:100B1000A8B101208A490860FFF718FD054606E0E4
:100B2000FFF714FD401B022801D903200AE7824881
:100B30006C300068C0F340000028F1D014E00020C1
:100B40007F490860FFF702FD054606E0FFF7FEFC5F
:100B5000401B022801D90320F4E677486C30006876
:100B6000C0F340000028F1D1207800F004000428F0
:100B700070D1002670483830006800F0805090B97D
:100B800000BF002000906C483830006840F0805072
:100B90006949383108600846006800F080500090CC
:100BA00000BF00BF01266748006800F48070B0B93C
:100BB0006448006840F4807062490860FFF7C6FC32
:100BC000054606E0FFF7C2FC401B022801D90320BE
:100BD000B8E65C48006800F480700028F2D000BFDE
:100BE000A068012808D154486830006840F001002E
:100BF0005149683108601DE0A06805280DD14E48B4
:100C00006830006840F004004B49683108600846CD
:100C1000006840F0010008600CE047486830006858
:100C200020F001004449683108600846006820F05F
:100C30000400086000BFA068A8B1FFF787FC054664
:100C400009E0FFF783FC401B41F28831884202D95A
:100C5000032077E626E0384868300068C0F340009B
:100C60000028EED013E0FFF771FC054608E0FFF71F
:100C70006DFC401B41F28831884201D9032061E6B6
:100C80002D4868300068C0F340000028EFD1012EE5
:100C900007D129483830006820F080502649383183
:100CA000086000BFA069B8B32348006800F00C00DA
:100CB00008285ED0A069022846D100201F49086696
:100CC000FFF744FC054606E0FFF740FC401B022806
:100CD00001D9032036E6184808380068C0F34060A0
:100CE0000028F1D1D4E907010843616A40EA811183
:100CF0000122A06AC2EB500041EA00412C20005DB5
:100D000041EA00600C49091F086001200B49086690
:100D1000FFF71CFC054607E02DE0FFF717FC401B22
:100D2000022801D903200DE6034808380068C0F303
:100D300040600028F1D01EE0083802400000474221
:100D4000800E47420070004000200C490866FFF703
:100D5000FDFB054606E0FFF7F9FB401B022801D921
:100D60000320EFE506480068C0F340600028F2D198
:100D700001E00120E6E50020E4E500000000474234
:100D80000038024070B504462546681EB0F1807FE9
:100D900001D301200FE0681E4FF0E02148610F21D0
:100DA0004FF0FF3000F028FF00204FF0E021886175
:100DB00007200861002070BD10B504460CB9012061
:100DC00010BD94F83D0028B9002084F83C0020466E
:100DD00000F00CF8022084F83D00211D206800F08E
:100DE0008DFB012084F83D000020E9E770470146B3
:100DF000022081F83D000868806800F00702062A9A
:100E000005D00868006840F001000B6818600120F8
:100E100081F83D000020704710B504460CB9012050
:100E200010BDA06900B100E000BF94F8390028B9F6
:100E3000002084F83800204600F027F8242084F8A9
:100E400039002068C06820F400502168C86020463E
:100E500000F0C0FB2068006920F490402168086120
:100E60002068406920F02A00216848612068C06835
:100E700040F400502168C8600020E063202084F81E
:100E8000390084F83A000020CAE7704710B53249AB
:100E9000096801F0004149B12F49096841F000415A
:100EA0002D4A11608169891C816110BD2A49083968
:100EB00009682A4A11622849091F097882F8241012
:100EC0002549C91E0978916223490C310968D1620C
:100ED0002149891E098811861F49096851631E49E5
:100EE000091D096891631C4910310968D1631CA26E
:100EF00000210BE0535C254C636000BF234B1B6853
:100F000003F04003002BF9D04B1CD9B22929F1D3AF
:100F100000211F4A116000BF1D4909680029FBD04C
:100F20000E4A016811604168516081689160C16832
:100F3000D160016911614169516181699161C16942
:100F4000D1610021124A116000BF114909680029CE
:100F5000FBD000BFA9E700002CED00E07C0B0020D7
:100F60000D0A456E74657220486172644661756C45
:100F7000745F48616E646C65722C2053797374657C
:100F80006D2048616C742E0D0A00000000100140B5
:100F90004400002000B587B000BF002001909C48AD
:100FA000006840F001009A4908600846006800F0B7
:100FB0000100019000BF00BF00BF00200190084663
:100FC000006840F0010008600846006800F0010079
:100FD000019000BF00BF00BF002001908C4814307A
:100FE000006840F010008A49143108600846006823
:100FF00000F01000019000BF00BF481502900220D1
:10100000039001200490032005900720069002A978
:101010008048FFF79BF94FF480600290072006900C
:1010200002A97C48FFF792F9012200212520FFF751
:10103000F4FA2520FFF7E1FA0C2300224FF4964141
:10104000754801F0E3F87448006820F040007249E8
:1010500008600846006820F0200008600846C06864
:1010600040F02000C86000BF002001906848006880
:1010700040F00100664908600846006800F0010081
:10108000019000BF00BF00BF00200190084600682B
:1010900040F0010008600846006800F0010001907F
:1010A00000BF00BF00BF0020019059481030006809
:1010B00040F400305649103108600846006800F4DA
:1010C0000030019000BF00BF042002900220039076
:1010D00001200490032005900720069002A94D48A6
:1010E000FFF734F9082002900720069002A949482A
:1010F000FFF72CF9022200212620FFF78EFA262086
:10110000FFF77BFA0C2300224FF41651434801F0FD
:101110007DF84148006820F040003F4908600846DB
:10112000006820F0200008603C480C30006840F067
:1011300020003A490C31086000BF0020019034487B
:10114000006840F04000324908600846006800F03E
:101150004000019000BF00BF00BF00200190084682
:10116000006840F0040008600846006800F00400D1
:10117000019000BF00BF00BF002001902448143040
:10118000006840F0200022491431086008460068D9
:1011900000F02000019000BF00BF4020029002201C
:1011A000039001200490032005900820069002A9D6
:1011B0001B48FFF7CBF8802002900820069002A978
:1011C0001748FFF7C3F8062200214720FFF725FA4A
:1011D0004720FFF712FA0C2300224FF41651114852
:1011E00001F014F80C48006820F040000A4908603B
:1011F0000846006820F0200008600A480C300068AB
:1012000040F0200007490C31086007B000BD000025
:10121000303802400000024000100140004400400D
:1012200000080240001401402DE9F0410446082C5A
:1012300017DA0026FF27002508E0284600F030F8DE
:1012400010B1701CC6B22F46681CC5B2082DF4DB65
:10125000012E04D1A74202D10120BDE8F081002077
:10126000FBE7082C0BD1002000F01AF828B1012070
:1012700000F016F808B10120EFE70020EDE7092C97
:101280000BD1012000F00CF828B1022000F008F882
:1012900008B10120E1E70020DFE70020DDE70000E2
:1012A00001460B4850F831000069094B03EBC103BC
:1012B0009B88184008B9002200E00122044800EB96
:1012C000C1008079904201D1012070470020FCE7E5
:1012D000DC27000800BFFEE77047704710B50248E2
:1012E00000F072FC10BD0000642800087047000088
:1012F00010B5FFF731F90448007800B910BD00F0CF
:1013000005F800BFFAE700003000002010B51B48C8
:10131000006840B119480068401E1849086010B9BB
:10132000012017490870002408E004EB4401154A25
:1013300002EB810000F096FF601CC4B2042CF4DBC9
:1013400011480068401C10490860084600686FF0AA
:101350000041884202D100200B49086000F054FF90
:101360000A480078401CC0B2084908700A2803DB0C
:101370000020087000F044FF10BD00002400002091
:1013800028000020440700202C000020310000200D
:1013900000B593B000BF002001903048006840F0D5
:1013A00080502E4908600846006800F08050019087
:1013B00000BF00BF00BF002001902948006840F432
:1013C0008040274908600846006800F4804001908A
:1013D00000BF00BF0120029000040390022008908B
:1013E0004105099119210A914FF4A8710B9102212D
:1013F0000C9104210D9102A8FFF7A0FA18B1672102
:1014000018A0FEF798FF0F200E9002200F900020EA
:1014100010904FF4A05011904FF48050129005217D
:101420000EA8FFF74DF918B179210EA0FEF783FF42
:1014300000BF002001900948001D006840F4804072
:101440000649091D08600846006800F480400190C4
:1014500000BF00BFFEF774FF13B000BD403802406C
:10146000007000402E2E5C2E2E5C557365725C62FF
:1014700073705C6273702E63000000001448006893
:1014800040F47000124908601248006840F0010002
:101490001049086000200F49083108600D480068B5
:1014A0000D4908400B4908600C48091D0860081FD9
:1014B000006820F48020091F0860002005490C31D5
:1014C00008604FF0006002498039086070470000F2
:1014D00088ED00E000380240FFFFF6FE10300024E7
:1014E00070B5002500264FF080444FF6FB70206158
:1014F00001480068804770BD1800002010B50268E0
:10150000294B98420ED0B0F1804F0BD0274B984218
:1015100008D0274B984205D0264B984202D0264B44
:10152000984203D122F070024B681A431E4B984236
:1015300020D0B0F1804F1DD01C4B98421AD01C4BCC
:10154000984217D01B4B984214D01B4B984211D095
:101550001A4B98420ED01A4B98420BD0194B984216
:1015600008D0194B984205D0184B984202D0184B1E
:10157000984203D122F44072CB681A4322F08003D0
:101580004C6943EA040202608B68C3620B688362A1
:10159000054B984202D0084B984201D10B69036376
:1015A0000123436110BD0000000001400004004021
:1015B00000080040000C00400004014000400140D1
:1015C000004401400048014000180040001C004059
:1015D000002000402DE9F04104462068006920F415
:1015E0004050E1680843216808612169A068084308
:1015F00061690843E16940EA01052068C06849F271
:101600000C61884328432168C8602068406920F441
:101610004070A169084321684861E069B0F5004F56
:101620007ED1C4492068884203D0C34920688842DB
:101630005DD1FFF71BF900EBC00101EB0010616801
:101640004900B0FBF1F06421B0FBF1F00601FFF7B7
:101650000DF900EBC00101EB001061684900B0FB1F
:10166000F1F7FFF703F900EBC00101EB001061682F
:101670004900B0FBF1F06421B0FBF1F000EBC001D8
:1016800001EB0010A7EB8000322101EBC0006421C8
:10169000B0FBF1F000F0F80006EB4006FFF7E6F8CB
:1016A00000EBC00101EB001061684900B0FBF1F7ED
:1016B000FFF7DCF800EBC00101EB001061684900A6
:1016C000B0FBF1F06421B0FBF1F000EBC00101EBE5
:1016D0000010A7EB8000322101EBC0006421B0FBB9
:1016E000F1F000F0070030442168886020E1FFF746
:1016F000ADF800EBC00101EB001061684900B0FBE0
:10170000F1F06421B0FBF1F00601FFF79FF800EB68
:10171000C00101EB001061684900B0FBF1F700E087
:1017200045E0FFF793F800EBC00101EB00106168A2
:101730004900B0FBF1F06421B0FBF1F000EBC00117
:1017400001EB0010A7EB8000322101EBC000642107
:10175000B0FBF1F000F0F80006EB4006FFF776F87A
:1017600000EBC00101EB001061684900B0FBF1F72C
:10177000FFF76CF800EBC00101EB00106168490055
:10178000B0FBF1F06421B0FBF1F000EBC00101EB24
:101790000010A7EB8000322101EBC0006421B0FBF8
:1017A000F1F000F00700304421688860C0E0614932
:1017B0002068884203D06049206888425CD1FFF7E6
:1017C00055F800EBC00101EB001061688900B0FB27
:1017D000F1F6FFF74BF800EBC00101EB0010616878
:1017E0008900B0FBF1F06421B0FBF1F000EBC00127
:1017F00001EB0010A6EB8000322101EB0010642108
:10180000B0FBF1F000F0F006FFF730F800EBC0019C
:1018100001EB001061688900B0FBF1F06421B0FBBE
:10182000F1F006EB0016FFF721F800EBC00101EB29
:10183000001061688900B0FBF1F7FFF717F800EBC3
:10184000C00101EB001061688900B0FBF1F0642178
:10185000B0FBF1F000EBC00101EB0010A7EB800042
:10186000322101EB00106421B0FBF1F000F00F0019
:101870003044216888605BE0FEF7E8FF00EBC001C0
:1018800001EB001061688900B0FBF1F6FEF7DEFFA6
:1018900000EBC00101EB001061688900B0FBF1F0C2
:1018A0006421B0FBF1F000EBC00101EB0010A6EBEE
:1018B0008000322101EB00106421B0FBF1F000F058
:1018C000F006FEF7C3FF00EBC00101EB00106168FA
:1018D0008900B0FBF1F06421B0FBF1F006EB0016DB
:1018E000FEF7B4FF00EBC00101EB00106168890056
:1018F000B0FBF1F7FEF7AAFF00EBC00101EB00100F
:1019000061688900B0FBF1F06421B0FBF1F000EBFD
:10191000C00101EB0010A7EB8000322101EB0010A9
:101920006421B0FBF1F000F00F00304421688860C2
:10193000BDE8F081001001400014014010B50248DC
:1019400000F014F810BD00007407002010B5024824
:1019500000F00CF810BD00002008002010B502486F
:1019600000F004F810BD0000CC0800202DE9F04183
:101970000446206805682068C6682068D0F814808E
:1019800005F02000D8B120684068C7B2E18AA0689D
:101990004754E08A401C80B2E082E189884201DB42
:1019A0000020E082608BE189884202DA608B401C73
:1019B0006083606A10B13846616A884700BF05F0ED
:1019C000800028B306F0800010B3A08A60B92068B8
:1019D000C06820F080002168C8602068C06840F0BE
:1019E00040002168C86013E0012084F82800618A63
:1019F0006068405C21684860608A401C80B26082F8
:101A0000A189884201DB00206082A08A401EA0825A
:101A100005F0400018B306F0400000B3A08A68B992
:101A20002068C06820F040002168C860206A08B1C2
:101A3000206A8047002084F8280010E0618A6068EE
:101A4000405C21684860608A401C80B26082A18945
:101A5000884201DB00206082A08A401EA082BDE88F
:101A6000F081F8B504460F461646002539E01EE021
:101A7000012000F0E7F8A08A0090002000F0E2F8D2
:101A8000A089BDF80010884200DD11E0A089BDF8F2
:101A9000001088420AD12068C06800F0800028B990
:101AA0002068C06840F080002168C86000BFDFE7A0
:101AB00000BF785D228A61688854012000F0C2F876
:101AC000208A401C80B22082A189884201DB00204C
:101AD0002082A08A401CA082002000F0B3F8681C7D
:101AE00085B2B542C3DB2068C06840F08000216841
:101AF000C860F8BD24482549086025484860254845
:101B0000886040208881C881002008824882C8827D
:101B1000088348838882C86108621F4848620020A1
:101B200081F828001D481E4908601E4848601E486C
:101B3000886040208881C881002008824882C8824D
:101B4000088348838882C861086218484862002078
:101B500081F8280016481749086017484860174858
:101B6000886040208881C881002008824882C8821D
:101B7000088348838882C86108621148486200204F
:101B800081F8280070470000001001407407002011
:101B9000A0070020E0070020DD26000800440040E8
:101BA000200800204C0800208C0800203527000861
:101BB00000140140CC080020F8080020380900205B
:101BC0008526000800BFFEE70FB4054B10B503A93A
:101BD000044A029800F039F810BC5DF814FB0000CC
:101BE000632500084800002002480068C0F3022076
:101BF000704700000CED00E010B5002804DB0A0778
:101C0000130E054A135406E00A07140E034A00F0A7
:101C10000F031B1FD45410BD00E400E018ED00E0DA
:101C200002E008C8121F08C1002AFAD170477047A5
:101C3000002001E001C1121F002AFBD1704780F390
:101C40001088704780F3108870472DE9F84F994647
:101C5000924688460546002706E025280AD05146C8
:101C60004A4690476D1C7F1C28780028F5D13846DD
:101C7000BDE8F88F002315F8011F18462E2915D14D
:101C800015F8011F04232A290DD06FF02F0229789F
:101C9000A1F13004092C09D800EB800002EB4000D0
:101CA00008446D1CF3E758F8040B6D1C2A78002AD1
:101CB000DDD0632A07D0732A0FD0104651464A461A
:101CC00090477F1C2AE018F8042B8DF80020002193
:101CD0008DF801106E46012103E058F8046B4FF0B7
:101CE000FF315A074FF0000401D409E0641C84421C
:101CF0000BDA8C42FADB325D002AF7D105E0641C76
:101D00008C42FCDB305D0028F9D1274404E016F852
:101D1000010B51464A469047641EF8D26D1CA3E75A
:101D20000146042901DB0020704701EB4100084A0D
:101D300002EB80004078012808D1002001EB41022D
:101D4000034B03EB820250700120EDE70020EBE72C
:101D50004407002010B5044604B910BD012C00D181
:101D600002240120FFF76BFF0948046000200949A5
:101D70000870FFF764FF06E000F074F8054800788B
:101D8000012800D100E0F7E700BF00BFE5E7000051
:101D9000240000202800002070B50546304800EBE4
:101DA00005142846FFF740FA00283ED02079052880
:101DB00002DA0520207152E020790A2803DA20791E
:101DC000401C20714BE0A07A38B90120A07205EBCD
:101DD0004501491CC8B200F003FA208900283EDD05
:101DE000E088218988420DDAE088401C80B2E080DA
:101DF0002189884233D105EB4501C91CC8B200F0E6
:101E0000EFF92CE0E07A002829DD207B401CC0B2ED
:101E10002073E17A884222DB0020207305EB450124
:101E2000491CC8B200F0DCF919E02079052802DD70
:101E30000520207110E0207918B12079401E207112
:101E40000AE0A07A012807D10020A07205EB450125
:101E5000891CC8B200F0C4F90020E080207370BD76
:101E600090040020704710B5FEF782FBFFF790FA50
:101E700000F014F900F068F900F0C0F810BD00009F
:101E80002DE9F04192B00646402102A8FEF7D2F9B2
:101E90004FF0804500BF002001902048006840F0CE
:101EA00001001E4908600846006800F0010001902A
:101EB00000BF00BF1A4800684FEA50081948B8FB35
:101EC000F0F0401E87B2B5F1804F02D0164885422F
:101ED00001D1344601E04FF6FF7402950397059453
:101EE00000210691049107918021089102A8FEF734
:101EF00063FF20B140F229210CA0FEF71CFA022258
:101F000000211C20FEF789FB1C20FEF776FB02A8AF
:101F1000FEF76DFF12B0BDE8F081000040380240CE
:101F20004000002040420F00000C00402E2E5C2E8E
:101F30002E5C557365725C6273705C7372635C6275
:101F400073705F74696D65722E63000000B587B0B1
:101F500000BF002001902648006840F0020024499C
:101F600008600846006800F00200019000BF00BF52
:101F700000BF002001900846006840F01000086093
:101F80000846006800F01000019000BF00BF4FF04D
:101F9000005018498861800088610009164908606E
:101FA0008000086001200390002004900320059029
:101FB0004FF40050029002A90E48FEF7C7F94FF403
:101FC0000040029002A90B48FEF7C0F94FF40060F0
:101FD000029002A908481838FEF7B8F94FF40050EB
:101FE000029002A904481838FEF7B0F907B000BD06
:101FF00030380240001002401804024000B587B09B
:1020000000BF002001902248006840F002002049F3
:1020100008600846006800F00200019000BF00BFA1
:1020200000BF002001900846006840F020000860D2
:102030000846006800F02000019000BF00BF00BF0C
:10204000002001900846006840F48070086008464F
:10205000006800F48070019000BF00BF012000F014
:1020600085F8022000F082F80120039000200490FF
:10207000022005900002029002A90648FEF766F9C8
:102080008020029002A90448FEF760F907B000BD65
:1020900030380240000402400014024070B50024B1
:1020A00016E0002004EB4401224A02EB8101486063
:1020B00004EB440102EB8101886004EB440102EB74
:1020C0008101487004EB440102F82100601CC4B295
:1020D000042CE6DB184800684FF47A72B0FBF2F18A
:1020E000481EB0F1807F00D31BE0481E4FF0E02275
:1020F000506150170F22002804DB13071D0E0F4BF1
:102100001D5406E013071E0E0D4B00F00F052D1F8A
:102110005E5500BF00204FF0E02290610720106163
:1021200000BF0120074908704FF47A70FFF7A8FE3E
:1021300070BD0000440700204000002000E400E0E3
:1021400018ED00E03000002010B5FFF7D3FCFEF7DB
:1021500021FF10BD10B5002404E02046FFF71CFE4F
:10216000601CC4B20A2CF8DB10BD0000411EC8B2CE
:1021700020B94FF00071044A116004E0012802D137
:10218000C105024A11607047180402401814024049
:10219000411EC8B220B94FF40071044A116004E036
:1021A000012802D18021024A1160704718040240C0
:1021B00018140240012806D10749096881F400710A
:1021C000054A116007E0022805D10449096881F039
:1021D0008001024A11607047140402401414024046
:1021E0000649C97A054A50541146C97A491CC9B2F0
:1021F000D1720A2901DB0021D1727047300500201D
:1022000010B5FFF7A7FF10BD70470000F0B591B003
:1022100004460D4617461E4601940295002103917F
:102220000491059707910696089101A8FEF7F4FD21
:1022300020B14FF4247102A0FEF77DF811B0F0BD7B
:102240002E2E5C2E2E5C557365725C6273705C730F
:1022500072635C6273705F756172745F6669666FEA
:102260002E630000416851B14168491E416031B997
:10227000012141700178012901D1816841607047D5
:1022800070B504460D46042C06DB124A12A11AA0B2
:10229000FFF79AFC00BFFEE70120FFF7D0FC04EB3C
:1022A00044001D4901EB8000456004EB440001EB54
:1022B00080008560002004EB4401174A02EB810195
:1022C0004870012004EB440102F821000020FFF7D0
:1022D000B6FC70BD2B2800082E2E5C2E2E5C55738C
:1022E00065725C6273705C7372635C6273705F745E
:1022F000696D65722E6300004572726F723A2066D6
:10230000696C652025732C2066756E6374696F6E29
:1023100020257328290D0A004407002070B50346C4
:102320000C464FF08040456A2919012B0AD11A4EFC
:10233000326041634FF6FD760661C66846F00206DC
:10234000C66027E0022B0AD1144E326081634FF63B
:10235000FB760661C66846F00406C6601AE0032BE9
:102360000AD10F4E3260C1634FF6F7760661C66838
:1023700046F00806C6600DE0042B0AD1094E326013
:1023800001644FF6EF760661C66846F01006C66037
:1023900000E070BD00BFFCE7140000201800002022
:1023A0001C0000202000002010B50446042C06DB91
:1023B0000E4A0FA116A0FFF707FC00BFFEE70120A1
:1023C000FFF73DFC002004EB4401194A02EB8101B8
:1023D000486004EB440102EB8101487004EB4401C6
:1023E00002F82100FFF72BFC10BD00003E2800087A
:1023F0002E2E5C2E2E5C557365725C6273705C735E
:1024000072635C6273705F74696D65722E63000045
:102410004572726F723A2066696C652025732C20B4
:1024200066756E6374696F6E20257328290D0A0026
:10243000440700200020084908700849087000BFC0
:1024400003E00021064A1154401C1428F9DB002047
:1024500004490870704700000800002009000020AF
:102460007802002002000020002003E00021044A3E
:102470001154401C1428F9DB0020024908707047F1
:102480006402002001000020002003E00021044A33
:102490001154401C1428F9DB0020024908707047D1
:1024A000500200200000002070B505460C46174879
:1024B00005701748047015480078C0F3001020B963
:1024C00013480078C0F30010E0B100201149086003
:1024D0000E48007800F00F004FF47A7191FBF0F095
:1024E0000D4908600A48007800F00F004FF47A7137
:1024F00091FBF0F009490860094A00210220FFF72A
:102500000DFF02E00220FFF74FFF70BD0800002022
:1025100009000020040000200C0000201000002012
:10252000752500082DE9F04105460E461746284658
:10253000FDF7C8FE04460CB9BDE8F081E06908B1BA
:10254000E06980473A4631462046FFF78AFA00BFE5
:10255000F2E713B50446012201A92046FFF7E2FF86
:102560001CBD70B504460D46E1B20120FFF7F1FF36
:10257000204670BD002123480078C0F300100028D9
:102580003AD021480078C0F30010002834D01F480A
:1025900000681F4A126890422ED11E4800681B4AEC
:1025A000126890FBF2F302FB130028BB4FF420509B
:1025B000194A1060002000E0401C40F2D2729042A4
:1025C000FADB4FF02050144A1060002001E0491C53
:1025D000401C41F2C2229042F9DB4FF420400F4AE6
:1025E0009061002000E0401C40F2D2729042FADB81
:1025F0004FF02040094A906106480068401C054A97
:102600001060704708000020090000200C00002026
:1026100010000020040000201804024000100240B6
:10262000FFF721FCFFF792FCFEF758FEFFF72CFFA7
:10263000FFF71AFF0120FFF7ABFD6420FFF78AFBCD
:102640000120FFF793FD6420FFF784FB6421002045
:10265000FFF716FE4FF4FA710120FFF711FE0FE0AD
:10266000FFF700FC0020FFF75BFB10B10120FFF734
:10267000A1FD0120FFF754FB10B10220FFF79AFDE6
:10268000EEE7000010B5044612480078401C1149DE
:10269000087008460078401E0F490C543C2C17D196
:1026A00008460078012811D10A480078801E085C8D
:1026B000C3280BD160210848064A12788154054886
:1026C0000278521C04490120FFF72CFFFFF7B2FEED
:1026D00010BD0000020000207802002010B5044662
:1026E00012480078401C1149087008460078401EC6
:1026F0000F490C543C2C17D108460078012811D101
:102700000A480078801E085CC3280BD19021084835
:10271000064A1278815405480278521C0449012067
:10272000FFF700FFFFF7A0FE10BD00000100002032
:102730006402002010B586B0044626480078401C8C
:102740002449087008460078401E23490C543C2C4C
:1027500030D10846407801282AD11E480078801ED2
:10276000085CC32824D1002005E01B4A411C515CB1
:1027700001AA1154401C17490978491E8142F4DC12
:1027800015480078902807D112480078401E82B280
:1027900001A90020FFF7C6FE0F480078602807D186
:1027A0000C480078401E82B201A90520FFF7BAFE4E
:1027B000FFF76AFE4C2C0AD107480078432804D161
:1027C000054A91785078FFF76FFEFFF75DFE06B07F
:1027D00010BD000000000020500200200020024038
:1027E000000100000008024000200000002002401C
:1027F00000080000001C024004000000001C024011
:102800000800000000140240000800000018024008
:1028100080000000001C0240008000006273705FB6
:10282000537461727454696D6572006273705F53A2
:10283000746172744175746F54696D65720062736E
:10284000705F53746F7054696D6572000000000012
:102850000000000001020304060708090000000050
:10286000010203040D0A2A2A2A2A2A2A2A2A2A2AA3
:102870002A2A2A2A2A2A2A2A2A2A2A2A2A2A2A2AB8
:102880002A2A2A2A2A2A2A2A2A2A2A2A2A2A2A2AA8
:102890002A2A2A2A2A2A2A2A2A2A2A2A2A2A2A2A98
:1028A0002A2A2A0D0A000000C8280008000000207B
:1028B0004C000000201C0008142900084C000020D7
:1028C000740F0000301C0008000000000000000031
:1028D00000000000000000000000000000000000F8
:1028E00000000000000000000000000000000000E8
:1028F00000000000000000000000000000000000D8
:1029000010000000010000000024F400000000009E
:0429100000000000C3
:040000050800018965
:00000001FF
